:100B46003F065B4F666D7D077F6F777C395C7971F9
:040AD5007F0A7E0016
:100AD900D3EF9400EE940040147D727C00ED1D70FC
:0D0AE900011CED4C70F7EF1F70E61E80E35E
:010AF60022DD
:10096100AA05D2A6EF900B4693F580C2A67580FF2B
:10097100D2A77580FEC2A77F057E00120AD9D2A632
:10098100EA93F580C2A67580FFD2A77580FDC2A744
:100991007F057E00120AD9D2A6EB93F580C2A67517
:1009A10080FFD2A77580FBC2A77F057E00020AD90E
:100AA90020B00B120AD520B005050F30B0FD20B1DA
:100AB9000B120AD520B105150F30B1FD20B20C1269
:0C0AC9000AD520B206E4F50F30B2FD2281
:1009B100EF75F00A84FEEF75F00A84ABF0D2A6AFB2
:1009C10006EF900B4693F580C2A67580FFD2A775FE
:1009D10080BFC2A77F057E00120AD9D2A6AF03EF5E
:1009E10093F580C2A67580FFD2A775807FC2A77FCD
:0609F100057E00020AD998
:030B6200C2A32209
:100B3000D2A6EF900B4693F580C2A67580FFD2A790
:060B40007580EFC2A72240
:1008000075B0FE85B0105310F0E51064F060491229
:100810000AD585B0105310F0E51064F0603A85B049
:1008200010E5102482601B24C0601224E0600924BB
:10083000F07012E4F511800D751101800875110238
:100840008003751103E51064F0600885B010531043
:10085000F080F2AF11120B3075B0FD85B01053105F
:10086000F0E51064F06049120AD585B0105310F01D
:10087000E51064F0603A85B010E5102483601B2415
:10088000C0601224E0600924F07012751104800D1C
:1008900075110580087511068003751107E5106450
:1008A000F0600885B0105310F080F2AF11120B30D9
:1008B00075B0FB85B0105310F0E51064F06049127C
:1008C0000AD585B0105310F0E51064F0603A85B099
:1008D00010E5102485601B24C0601224E060092408
:1008E000F07012751108800D751109800875110AD4
:1008F000800375110BE51064F0600885B01053108B
:10090000F080F2AF11120B3075B0F785B0105310B4
:10091000F0E51064F06049120AD585B0105310F06C
:10092000E51064F0603A85B010E5102489601B245E
:10093000C0601224E0600924F0701275110C800D63
:1009400075110D800875110E800375110FE5106487
:10095000F0600885B0105310F080F2AF11120B3028
:010960002274
:100A3D007FFEC2B6E4FEC2B5EF30E004D2B4800250
:100A4D00C2B4D2B5EFC313FF0EBE08EA7F80E4FE39
:100A5D00C2B5EF30E004D2B48002C2B4D2B5EFC358
:080A6D0013FF0EBE08EAD2B629
:010A7500225E
:100B1600758911758C4C758AD0758D4C758BD0D2B4
:0A0B2600AFD2A9D2ABD28CD28E223E
:100AF700120B167508FE850890AB0DAD0EAF0B12E5
:0F0B07000961120AA9AF0F1209B1120A3D80EA63
:03000B00020A7670
:100A7600C0E0C0D075D000C000C007758C4C758A28
:100A8600D0050AE50AB40A12750A00AF087801EF24
:100A960008800123D8FDF508F590D007D000D0D006
:030AA600D0E0326B
:03001B000209F7E0
:1009F700C0E0C0F0C0D0758D4C758BD0050CE50CF0
:100A0700B4052C750C00E50975F06484F50BE50950
:100A170075F06484E5F075F00A84F50EE50975F064
:100A27000A8485F00D0509E509B4C803750900D0E6
:060A3700D0D0F0D0E03247
:03000000020B569A
:0C0B5600787FE4F6D8FD758111020AF7E3
:00000001FF
