:0D0B68003F065B4F6D7D077F6FFEFDFBF7C5
:100B2600E4FEC2A1EF30E704D2A08002C2A0D2A1A7
:080B3600EF25E0FF0EBE08EA06
:010B3E002294
:100B0A00E4FBED25E0FDEC33FCD2A1C2A130A50344
:0B0B1A004305010BBB0CEBAF05AE0464
:010B250022AD
:100B5600C2B7120B26C2A10000000000120B0AD277
:010B6600B7D7
:010B6700226B
:040A2800AB07AA0668
:100A2C007C037DE81209C57C037DE8AF03AE02129E
:100A3C0009C57E007F64CFCDCFCECCCE1209C58F39
:100A4C000A7C007D64AF03AE021209C57E007F0AEA
:100A5C00CFCDCFCECCCE1209C58F0BAE02AF037C5F
:100A6C00007D0A1209C5AF057580FFD2A7E50C9071
:100A7C000B7193F580C2A77580FFE50C14601614FA
:100A8C00601D1460242403702BD2A6E509900B681A
:100A9C00934480801BD2A6E50A900B68938011D2F8
:100AAC00A6E50B900B68938007D2A6EF900B68938A
:0E0ABC00F580C2A6050CE50CB40403E4F50CAD
:010ACA002209
:100B3F007D737C00ED1D70011C144C70F7EF1F705E
:060B4F00011E144E70EAC5
:010B5500227D
:100ACB00E508C394644026E4F5087FE4120B568EC8
:100ADB000D8F0EAC0DAD0EE412090B7BE67A3F7950
:100AEB009C783F1208001209448E0D8F0EAF0EAE8C
:0F0AFB000D120A287F057E00120B3F050880C1EF
:10080000EC4D6011E8497017ED33EC3304600DE4F2
:10081000FCFFFEFD22E933E8330470F80209B01250
:10082000097B58046009E4CC248150062850090251
:1008300009BA2840030209B7C0E0EB4A7044B98006
:1008400006D0E0FB0209A6EF4E701CBD8008EBFF4E
:10085000EAFEE9FD80EBE98DF0A4FEE5F00208E98F
:10086000E9CDF9EAFEEBFFEF89F0A4FCE5F0CE89D3
:10087000F0A42EFFE435F0CD89F0A42DFEE435F090
:100880008067EF4E7005BD80D780C3EF8BF0A4ACBE
:10089000F0EE8BF0A42CFCE435F0F8EF8AF0A42CF9
:1008A000E5F038FCE433CB8DF0A42CFCE5F03BF80C
:1008B000EE8AF0A42CFCE5F038F8E433CF89F0A4FC
:1008C0002CFCE5F038CF3400CE89F0A42FFFE5F002
:1008D0003EFEE433C98DF0A42EFEE5F039CD8AF05A
:1008E000A42FFFE5F03EFEE43DFD33D0E0FB5007D2
:1008F0000BBB000F0209BAEC2CFCEF33FFEE33FE0A
:06090000ED33FD02099237
:1009060075F020800E75F010800575F0087D007E6C
:10091600007F003392D530D503120A1AEC3340100B
:10092600EF33FFEE33FEED33FDEC33FCD5F0ED2275
:0E093600E5F0247EA2D513CC92E7CDCEFF22B1
:10094400EDD2E7CD33EC3392D524814006E4FFFEAB
:10095400FDFC22FCE4CFCECDCC24E0501174FF800A
:10096400EDC3CC13CCCD13CDCE13CECF13CF0470A7
:07097400F030D5DE020A1A83
:10097B00E9D2E7C933E833F892D5EDD2E7CD33ECC2
:07098B0033FC5002B2D5223B
:10099200EC30E7100FBF000C0EBE00080DBD0004C6
:1009A2000BEB6014A2D5EB13FCED92E7FD2274FF72
:1009B200FCFDFEFF22E480F8A2D574FF13FC7D80CB
:0309C200E480EFDF
:03000000020B757B
:0C0B7500787FE4F6D8FD75810E020ACBF3
:1009C500BC000BBE0029EF8DF084FFADF022E4CC16
:1009D500F875F008EF2FFFEE33FEEC33FCEE9DECDF
:1009E500984005FCEE9DFE0FD5F0E9E4CEFD22ED25
:1009F500F8F5F0EE8420D21CFEADF075F008EF2F6F
:100A0500FFED33FD4007985006D5F0F222C398FD5F
:050A15000FD5F0EA22FC
:0E0A1A00C3E49FFFE49EFEE49DFDE49CFC22ED
:00000001FF
