:100B58003F065B4F666D7D077F6F777C395C7971E7
:040B6800FEFDFBF79C
:100B2800E4FEC2A1EF30E704D2A08002C2A0D2A1A5
:080B3800EF25E0FF0EBE08EA04
:010B40002292
:100B0C00E4FBED25E0FDEC33FCD2A1C2A130A50342
:0B0B1C004305010BBB0CEBAF05AE0462
:010B270022AB
:100B6C00C2B7120B28C2A10000000000120B0CD25D
:010B7C00B7C1
:010B7D002255
:040A2800AB07AA0668
:100A2C007C037DE81209C58F097C037DE8AF03AE1A
:100A3C00021209C57E007F64CFCDCFCECCCE120979
:100A4C00C58F0A7C007D64AF03AE021209C57E001F
:100A5C007F0ACFCDCFCECCCE1209C58F0BAE02AF55
:100A6C00037C007D0A1209C5AF057580FFD2A7E58E
:100A7C000C900B6893F580C2A77580FFE50C146091
:100A8C001614601D1460242403702BD2A6E5099063
:100A9C000B58934480801BD2A6E50A900B58938088
:100AAC0011D2A6E50B900B58938007D2A6EF900BB2
:100ABC005893F580C2A6050CE50CB40403E4F50CC0
:010ACC002207
:100B41007D737C00ED1D70011C144C70F7EF1F705C
:060B5100011E144E70EAC3
:010B5700227B
:100ACD00E508C394644026E4F5087FE4120B6C8EB0
:100ADD000D8F0EAC0DAD0EE412090B7BE67A3F794E
:100AED009C783F1208001209448E0D8F0EAF0EAE8A
:0F0AFD000D120A287F057E00120B41050880C1EB
:10080000EC4D6011E8497017ED33EC3304600DE4F2
:10081000FCFFFEFD22E933E8330470F80209B01250
:10082000097B58046009E4CC248150062850090251
:1008300009BA2840030209B7C0E0EB4A7044B98006
:1008400006D0E0FB0209A6EF4E701CBD8008EBFF4E
:10085000EAFEE9FD80EBE98DF0A4FEE5F00208E98F
:10086000E9CDF9EAFEEBFFEF89F0A4FCE5F0CE89D3
:10087000F0A42EFFE435F0CD89F0A42DFEE435F090
:100880008067EF4E7005BD80D780C3EF8BF0A4ACBE
:10089000F0EE8BF0A42CFCE435F0F8EF8AF0A42CF9
:1008A000E5F038FCE433CB8DF0A42CFCE5F03BF80C
:1008B000EE8AF0A42CFCE5F038F8E433CF89F0A4FC
:1008C0002CFCE5F038CF3400CE89F0A42FFFE5F002
:1008D0003EFEE433C98DF0A42EFEE5F039CD8AF05A
:1008E000A42FFFE5F03EFEE43DFD33D0E0FB5007D2
:1008F0000BBB000F0209BAEC2CFCEF33FFEE33FE0A
:06090000ED33FD02099237
:1009060075F020800E75F010800575F0087D007E6C
:10091600007F003392D530D503120A1AEC3340100B
:10092600EF33FFEE33FEED33FDEC33FCD5F0ED2275
:0E093600E5F0247EA2D513CC92E7CDCEFF22B1
:10094400EDD2E7CD33EC3392D524814006E4FFFEAB
:10095400FDFC22FCE4CFCECDCC24E0501174FF800A
:10096400EDC3CC13CCCD13CDCE13CECF13CF0470A7
:07097400F030D5DE020A1A83
:10097B00E9D2E7C933E833F892D5EDD2E7CD33ECC2
:07098B0033FC5002B2D5223B
:10099200EC30E7100FBF000C0EBE00080DBD0004C6
:1009A2000BEB6014A2D5EB13FCED92E7FD2274FF72
:1009B200FCFDFEFF22E480F8A2D574FF13FC7D80CB
:0309C200E480EFDF
:03000000020B7E72
:0C0B7E00787FE4F6D8FD75810E020ACDE8
:1009C500BC000BBE0029EF8DF084FFADF022E4CC16
:1009D500F875F008EF2FFFEE33FEEC33FCEE9DECDF
:1009E500984005FCEE9DFE0FD5F0E9E4CEFD22ED25
:1009F500F8F5F0EE8420D21CFEADF075F008EF2F6F
:100A0500FFED33FD4007985006D5F0F222C398FD5F
:050A15000FD5F0EA22FC
:0E0A1A00C3E49FFFE49EFEE49DFDE49CFC22ED
:00000001FF
